{
  "address": "0xB4e1017607607189bDc10f33b258558f570a352d",
  "abi": [
    {
      "inputs": [
        {
          "internalType": "address",
          "name": "tokenAddress",
          "type": "address"
        }
      ],
      "stateMutability": "nonpayable",
      "type": "constructor"
    },
    {
      "inputs": [],
      "name": "MinimalDex__alreadyHasLiquidity",
      "type": "error"
    },
    {
      "inputs": [],
      "name": "MinimalDex__insufficientUserLiquidity",
      "type": "error"
    },
    {
      "inputs": [],
      "name": "MinimalDex__tokenAmountMustEqualEthAmount",
      "type": "error"
    },
    {
      "inputs": [],
      "name": "MinimalDex__transactionFailed",
      "type": "error"
    },
    {
      "inputs": [],
      "name": "MinimalDex__userTokenBalanceInsufficient",
      "type": "error"
    },
    {
      "anonymous": false,
      "inputs": [
        {
          "indexed": false,
          "internalType": "address",
          "name": "user",
          "type": "address"
        },
        {
          "indexed": false,
          "internalType": "uint256",
          "name": "liquidityMinted",
          "type": "uint256"
        },
        {
          "indexed": false,
          "internalType": "uint256",
          "name": "ethDeposited",
          "type": "uint256"
        },
        {
          "indexed": false,
          "internalType": "uint256",
          "name": "tokensDeposited",
          "type": "uint256"
        }
      ],
      "name": "LiquidityProvided",
      "type": "event"
    },
    {
      "anonymous": false,
      "inputs": [
        {
          "indexed": false,
          "internalType": "address",
          "name": "user",
          "type": "address"
        },
        {
          "indexed": false,
          "internalType": "uint256",
          "name": "liquidityRemoved",
          "type": "uint256"
        },
        {
          "indexed": false,
          "internalType": "uint256",
          "name": "ethWithdrawn",
          "type": "uint256"
        },
        {
          "indexed": false,
          "internalType": "uint256",
          "name": "tokensWithdrawn",
          "type": "uint256"
        }
      ],
      "name": "LiquidityRemoved",
      "type": "event"
    },
    {
      "anonymous": false,
      "inputs": [
        {
          "indexed": false,
          "internalType": "address",
          "name": "user",
          "type": "address"
        },
        {
          "indexed": false,
          "internalType": "uint256",
          "name": "ethInput",
          "type": "uint256"
        },
        {
          "indexed": false,
          "internalType": "uint256",
          "name": "tokenOutput",
          "type": "uint256"
        }
      ],
      "name": "SwapEthForToken",
      "type": "event"
    },
    {
      "anonymous": false,
      "inputs": [
        {
          "indexed": false,
          "internalType": "address",
          "name": "user",
          "type": "address"
        },
        {
          "indexed": false,
          "internalType": "uint256",
          "name": "tokenInput",
          "type": "uint256"
        },
        {
          "indexed": false,
          "internalType": "uint256",
          "name": "ethOutput",
          "type": "uint256"
        }
      ],
      "name": "SwapTokenForEth",
      "type": "event"
    },
    {
      "stateMutability": "payable",
      "type": "fallback"
    },
    {
      "inputs": [],
      "name": "addLiquidity",
      "outputs": [
        {
          "internalType": "uint256",
          "name": "tokensDeposited",
          "type": "uint256"
        }
      ],
      "stateMutability": "payable",
      "type": "function"
    },
    {
      "inputs": [
        {
          "internalType": "uint256",
          "name": "xInput",
          "type": "uint256"
        },
        {
          "internalType": "uint256",
          "name": "xReserves",
          "type": "uint256"
        },
        {
          "internalType": "uint256",
          "name": "yReserves",
          "type": "uint256"
        }
      ],
      "name": "calculatePrice",
      "outputs": [
        {
          "internalType": "uint256",
          "name": "yOutput",
          "type": "uint256"
        }
      ],
      "stateMutability": "pure",
      "type": "function"
    },
    {
      "inputs": [],
      "name": "ethToToken",
      "outputs": [
        {
          "internalType": "uint256",
          "name": "tokenOutput",
          "type": "uint256"
        }
      ],
      "stateMutability": "payable",
      "type": "function"
    },
    {
      "inputs": [],
      "name": "getTotalLiquidity",
      "outputs": [
        {
          "internalType": "uint256",
          "name": "",
          "type": "uint256"
        }
      ],
      "stateMutability": "view",
      "type": "function"
    },
    {
      "inputs": [
        {
          "internalType": "address",
          "name": "user",
          "type": "address"
        }
      ],
      "name": "getUserLiquidity",
      "outputs": [
        {
          "internalType": "uint256",
          "name": "",
          "type": "uint256"
        }
      ],
      "stateMutability": "view",
      "type": "function"
    },
    {
      "inputs": [
        {
          "internalType": "uint256",
          "name": "tokens",
          "type": "uint256"
        }
      ],
      "name": "initializeLiquidity",
      "outputs": [
        {
          "internalType": "uint256",
          "name": "",
          "type": "uint256"
        }
      ],
      "stateMutability": "payable",
      "type": "function"
    },
    {
      "inputs": [
        {
          "internalType": "uint256",
          "name": "tokenInput",
          "type": "uint256"
        }
      ],
      "name": "tokenToEth",
      "outputs": [
        {
          "internalType": "uint256",
          "name": "ethOutput",
          "type": "uint256"
        }
      ],
      "stateMutability": "nonpayable",
      "type": "function"
    },
    {
      "inputs": [
        {
          "internalType": "uint256",
          "name": "withdrawAmount",
          "type": "uint256"
        }
      ],
      "name": "withdrawLiquidity",
      "outputs": [
        {
          "internalType": "uint256",
          "name": "ethWithdrawAmount",
          "type": "uint256"
        },
        {
          "internalType": "uint256",
          "name": "tokenWithdrawAmount",
          "type": "uint256"
        }
      ],
      "stateMutability": "nonpayable",
      "type": "function"
    },
    {
      "stateMutability": "payable",
      "type": "receive"
    }
  ],
  "transactionHash": "0x680d35881f9289798912cb3deb11f46b06eb447142bb03fd22df280b69c7ff5f",
  "args": [
    "0x77AAfa1109cF9EC5c021d7A4d59B9069153712D0"
  ],
  "numDeployments": 1,
  "solcInputHash": "57ffa5129ac66b9abd417e0bdf5a195d",
  "bytecode": "0x60806040523480156200001157600080fd5b5060405162001aca38038062001aca8339818101604052810190620000379190620000e8565b806000806101000a81548173ffffffffffffffffffffffffffffffffffffffff021916908373ffffffffffffffffffffffffffffffffffffffff160217905550506200011a565b600080fd5b600073ffffffffffffffffffffffffffffffffffffffff82169050919050565b6000620000b08262000083565b9050919050565b620000c281620000a3565b8114620000ce57600080fd5b50565b600081519050620000e281620000b7565b92915050565b6000602082840312156200010157620001006200007e565b5b60006200011184828501620000d1565b91505092915050565b6119a0806200012a6000396000f3fe60806040526004361061007f5760003560e01c8063789770f41161004e578063789770f4146101dc578063dbbdd935146101fa578063e015c62a14610237578063e8078d9414610274576100c5565b80630a861f2a146101065780632298e8d31461014457806335c7e9251461017457806370b2a30f1461019f576100c5565b366100c5576100c36040518060400160405280600e81526020017f2d2d2d2d2d20726563656976653a00000000000000000000000000000000000081525034610292565b005b6101046040518060400160405280600f81526020017f2d2d2d2d2d2066616c6c6261636b3a000000000000000000000000000000000081525034610292565b005b34801561011257600080fd5b5061012d60048036038101906101289190611299565b61032e565b60405161013b9291906112d5565b60405180910390f35b61015e60048036038101906101599190611299565b6106d6565b60405161016b91906112fe565b60405180910390f35b34801561018057600080fd5b50610189610891565b60405161019691906112fe565b60405180910390f35b3480156101ab57600080fd5b506101c660048036038101906101c19190611299565b61089b565b6040516101d391906112fe565b60405180910390f35b6101e4610c13565b6040516101f191906112fe565b60405180910390f35b34801561020657600080fd5b50610221600480360381019061021c9190611377565b610e0b565b60405161022e91906112fe565b60405180910390f35b34801561024357600080fd5b5061025e600480360381019061025991906113a4565b610e54565b60405161026b91906112fe565b60405180910390f35b61027c610eac565b60405161028991906112fe565b60405180910390f35b61032a82826040516024016102a8929190611490565b6040516020818303038152906040527f9710a9d0000000000000000000000000000000000000000000000000000000007bffffffffffffffffffffffffffffffffffffffffffffffffffffffff19166020820180517bffffffffffffffffffffffffffffffffffffffffffffffffffffffff8381831617835250505050611235565b5050565b600080600260003373ffffffffffffffffffffffffffffffffffffffff1673ffffffffffffffffffffffffffffffffffffffff168152602001908152602001600020548311156103aa576040517f88349f5f00000000000000000000000000000000000000000000000000000000815260040160405180910390fd5b600047905060008060009054906101000a900473ffffffffffffffffffffffffffffffffffffffff1673ffffffffffffffffffffffffffffffffffffffff166370a08231306040518263ffffffff1660e01b815260040161040b91906114cf565b60206040518083038186803b15801561042357600080fd5b505afa158015610437573d6000803e3d6000fd5b505050506040513d601f19601f8201168201806040525081019061045b91906114ff565b9050600154828661046c919061155b565b61047691906115e4565b93506001548186610487919061155b565b61049191906115e4565b925084600160008282546104a59190611615565b9250508190555084600260003373ffffffffffffffffffffffffffffffffffffffff1673ffffffffffffffffffffffffffffffffffffffff16815260200190815260200160002060008282546104fb9190611615565b9250508190555060008054906101000a900473ffffffffffffffffffffffffffffffffffffffff1673ffffffffffffffffffffffffffffffffffffffff1663a9059cbb33856040518363ffffffff1660e01b815260040161055d929190611649565b602060405180830381600087803b15801561057757600080fd5b505af115801561058b573d6000803e3d6000fd5b505050506040513d601f19601f820116820180604052508101906105af91906116aa565b6105ee576040517f08c379a00000000000000000000000000000000000000000000000000000000081526004016105e590611723565b60405180910390fd5b60003373ffffffffffffffffffffffffffffffffffffffff168560405161061490611774565b60006040518083038185875af1925050503d8060008114610651576040519150601f19603f3d011682016040523d82523d6000602084013e610656565b606091505b5050905080610691576040517f2660c79700000000000000000000000000000000000000000000000000000000815260040160405180910390fd5b7f1dc8bb69df2b8e91fbdcbfcf93d951b3f0000f085a95fe3f7946d6161439245d338787876040516106c69493929190611789565b60405180910390a1505050915091565b60008060015414610713576040517f3bc9837900000000000000000000000000000000000000000000000000000000815260040160405180910390fd5b81341461074c576040517fd624506700000000000000000000000000000000000000000000000000000000815260040160405180910390fd5b47600181905550600154600260003373ffffffffffffffffffffffffffffffffffffffff1673ffffffffffffffffffffffffffffffffffffffff1681526020019081526020016000208190555060008054906101000a900473ffffffffffffffffffffffffffffffffffffffff1673ffffffffffffffffffffffffffffffffffffffff166323b872dd3330856040518463ffffffff1660e01b81526004016107f6939291906117ce565b602060405180830381600087803b15801561081057600080fd5b505af1158015610824573d6000803e3d6000fd5b505050506040513d601f19601f8201168201806040525081019061084891906116aa565b610887576040517f08c379a000000000000000000000000000000000000000000000000000000000815260040161087e90611851565b60405180910390fd5b6001549050919050565b6000600154905090565b60008160008054906101000a900473ffffffffffffffffffffffffffffffffffffffff1673ffffffffffffffffffffffffffffffffffffffff166370a08231336040518263ffffffff1660e01b81526004016108f791906114cf565b60206040518083038186803b15801561090f57600080fd5b505afa158015610923573d6000803e3d6000fd5b505050506040513d601f19601f8201168201806040525081019061094791906114ff565b101561097f576040517f790cd7d300000000000000000000000000000000000000000000000000000000815260040160405180910390fd5b60008060009054906101000a900473ffffffffffffffffffffffffffffffffffffffff1673ffffffffffffffffffffffffffffffffffffffff166370a08231306040518263ffffffff1660e01b81526004016109db91906114cf565b60206040518083038186803b1580156109f357600080fd5b505afa158015610a07573d6000803e3d6000fd5b505050506040513d601f19601f82011682018060405250810190610a2b91906114ff565b90506000479050610a3d848383610e54565b925060008054906101000a900473ffffffffffffffffffffffffffffffffffffffff1673ffffffffffffffffffffffffffffffffffffffff166323b872dd3330876040518463ffffffff1660e01b8152600401610a9c939291906117ce565b602060405180830381600087803b158015610ab657600080fd5b505af1158015610aca573d6000803e3d6000fd5b505050506040513d601f19601f82011682018060405250810190610aee91906116aa565b610b2d576040517f08c379a0000000000000000000000000000000000000000000000000000000008152600401610b2490611723565b60405180910390fd5b60003373ffffffffffffffffffffffffffffffffffffffff1684604051610b5390611774565b60006040518083038185875af1925050503d8060008114610b90576040519150601f19603f3d011682016040523d82523d6000602084013e610b95565b606091505b5050905080610bd0576040517f2660c79700000000000000000000000000000000000000000000000000000000815260040160405180910390fd5b7f7fa75e261eb395aa16e53389a6b0491f08392583eea4389c69763ded7b911877338686604051610c0393929190611871565b60405180910390a1505050919050565b6000803447610c229190611615565b905060008060009054906101000a900473ffffffffffffffffffffffffffffffffffffffff1673ffffffffffffffffffffffffffffffffffffffff166370a08231306040518263ffffffff1660e01b8152600401610c8091906114cf565b60206040518083038186803b158015610c9857600080fd5b505afa158015610cac573d6000803e3d6000fd5b505050506040513d601f19601f82011682018060405250810190610cd091906114ff565b9050610cdd348383610e54565b925060008054906101000a900473ffffffffffffffffffffffffffffffffffffffff1673ffffffffffffffffffffffffffffffffffffffff1663a9059cbb33856040518363ffffffff1660e01b8152600401610d3a929190611649565b602060405180830381600087803b158015610d5457600080fd5b505af1158015610d68573d6000803e3d6000fd5b505050506040513d601f19601f82011682018060405250810190610d8c91906116aa565b610dcb576040517f08c379a0000000000000000000000000000000000000000000000000000000008152600401610dc2906118f4565b60405180910390fd5b7feddf110f73196d58ed066d4c407a801beaf853fc20b1f2a6063fb8987d60264e333485604051610dfe93929190611871565b60405180910390a1505090565b6000600260008373ffffffffffffffffffffffffffffffffffffffff1673ffffffffffffffffffffffffffffffffffffffff168152602001908152602001600020549050919050565b6000806103e585610e65919061155b565b905060008382610e75919061155b565b90506000826103e887610e88919061155b565b610e929190611914565b90508082610ea091906115e4565b93505050509392505050565b6000803447610ebb9190611615565b905060008060009054906101000a900473ffffffffffffffffffffffffffffffffffffffff1673ffffffffffffffffffffffffffffffffffffffff166370a08231306040518263ffffffff1660e01b8152600401610f1991906114cf565b60206040518083038186803b158015610f3157600080fd5b505afa158015610f45573d6000803e3d6000fd5b505050506040513d601f19601f82011682018060405250810190610f6991906114ff565b905060006001838334610f7c919061155b565b610f8691906115e4565b610f909190611914565b90508060008054906101000a900473ffffffffffffffffffffffffffffffffffffffff1673ffffffffffffffffffffffffffffffffffffffff166370a08231336040518263ffffffff1660e01b8152600401610fec91906114cf565b60206040518083038186803b15801561100457600080fd5b505afa158015611018573d6000803e3d6000fd5b505050506040513d601f19601f8201168201806040525081019061103c91906114ff565b1015611074576040517f790cd7d300000000000000000000000000000000000000000000000000000000815260040160405180910390fd5b60008360015434611085919061155b565b61108f91906115e4565b905080600260003373ffffffffffffffffffffffffffffffffffffffff1673ffffffffffffffffffffffffffffffffffffffff16815260200190815260200160002060008282546110e09190611914565b9250508190555080600160008282546110f99190611914565b9250508190555060008054906101000a900473ffffffffffffffffffffffffffffffffffffffff1673ffffffffffffffffffffffffffffffffffffffff166323b872dd3330856040518463ffffffff1660e01b815260040161115d939291906117ce565b602060405180830381600087803b15801561117757600080fd5b505af115801561118b573d6000803e3d6000fd5b505050506040513d601f19601f820116820180604052508101906111af91906116aa565b6111ee576040517f08c379a00000000000000000000000000000000000000000000000000000000081526004016111e590611723565b60405180910390fd5b7f3bca7014f4c0ccc8016338c79f4c00e82068dbadaf4f01ca5449040fdd39f500338234856040516112239493929190611789565b60405180910390a18194505050505090565b60008151905060006a636f6e736f6c652e6c6f679050602083016000808483855afa5050505050565b600080fd5b6000819050919050565b61127681611263565b811461128157600080fd5b50565b6000813590506112938161126d565b92915050565b6000602082840312156112af576112ae61125e565b5b60006112bd84828501611284565b91505092915050565b6112cf81611263565b82525050565b60006040820190506112ea60008301856112c6565b6112f760208301846112c6565b9392505050565b600060208201905061131360008301846112c6565b92915050565b600073ffffffffffffffffffffffffffffffffffffffff82169050919050565b600061134482611319565b9050919050565b61135481611339565b811461135f57600080fd5b50565b6000813590506113718161134b565b92915050565b60006020828403121561138d5761138c61125e565b5b600061139b84828501611362565b91505092915050565b6000806000606084860312156113bd576113bc61125e565b5b60006113cb86828701611284565b93505060206113dc86828701611284565b92505060406113ed86828701611284565b9150509250925092565b600081519050919050565b600082825260208201905092915050565b60005b83811015611431578082015181840152602081019050611416565b83811115611440576000848401525b50505050565b6000601f19601f8301169050919050565b6000611462826113f7565b61146c8185611402565b935061147c818560208601611413565b61148581611446565b840191505092915050565b600060408201905081810360008301526114aa8185611457565b90506114b960208301846112c6565b9392505050565b6114c981611339565b82525050565b60006020820190506114e460008301846114c0565b92915050565b6000815190506114f98161126d565b92915050565b6000602082840312156115155761151461125e565b5b6000611523848285016114ea565b91505092915050565b7f4e487b7100000000000000000000000000000000000000000000000000000000600052601160045260246000fd5b600061156682611263565b915061157183611263565b9250817fffffffffffffffffffffffffffffffffffffffffffffffffffffffffffffffff04831182151516156115aa576115a961152c565b5b828202905092915050565b7f4e487b7100000000000000000000000000000000000000000000000000000000600052601260045260246000fd5b60006115ef82611263565b91506115fa83611263565b92508261160a576116096115b5565b5b828204905092915050565b600061162082611263565b915061162b83611263565b92508282101561163e5761163d61152c565b5b828203905092915050565b600060408201905061165e60008301856114c0565b61166b60208301846112c6565b9392505050565b60008115159050919050565b61168781611672565b811461169257600080fd5b50565b6000815190506116a48161167e565b92915050565b6000602082840312156116c0576116bf61125e565b5b60006116ce84828501611695565b91505092915050565b7f546f6b656e207472616e73666572206661696c65640000000000000000000000600082015250565b600061170d601583611402565b9150611718826116d7565b602082019050919050565b6000602082019050818103600083015261173c81611700565b9050919050565b600081905092915050565b50565b600061175e600083611743565b91506117698261174e565b600082019050919050565b600061177f82611751565b9150819050919050565b600060808201905061179e60008301876114c0565b6117ab60208301866112c6565b6117b860408301856112c6565b6117c560608301846112c6565b95945050505050565b60006060820190506117e360008301866114c0565b6117f060208301856114c0565b6117fd60408301846112c6565b949350505050565b7f496e697469616c206c6971756964697479206465706f736974206661696c6564600082015250565b600061183b602083611402565b915061184682611805565b602082019050919050565b6000602082019050818103600083015261186a8161182e565b9050919050565b600060608201905061188660008301866114c0565b61189360208301856112c6565b6118a060408301846112c6565b949350505050565b7f5472616e73616374696f6e206661696c65642100000000000000000000000000600082015250565b60006118de601383611402565b91506118e9826118a8565b602082019050919050565b6000602082019050818103600083015261190d816118d1565b9050919050565b600061191f82611263565b915061192a83611263565b9250827fffffffffffffffffffffffffffffffffffffffffffffffffffffffffffffffff0382111561195f5761195e61152c565b5b82820190509291505056fea264697066735822122030e1bc2e1a1b48ed8a753b8d04df38bc9f701f04737ca95e538d09a6047d72ad64736f6c63430008080033",
  "devdoc": {
    "kind": "dev",
    "methods": {
      "initializeLiquidity(uint256)": {
        "params": {
          "tokens": "amount of tokens to be deposited to DEX"
        },
        "returns": {
          "_0": "s_totalLiquidity amount of liquidity 'tokens' minted "
        }
      },
      "withdrawLiquidity(uint256)": {
        "params": {
          "withdrawAmount": "amount of liquidity to withdraw from pool"
        },
        "returns": {
          "ethWithdrawAmount": "amount of ETH to be returned to user when liquidity is withdrawn",
          "tokenWithdrawAmount": "amount of tokens to be returned to user when liquidity is withdrawn NOTE: as amounts could be very low in the case of low liquidity, UI should show amount before calling function"
        }
      }
    },
    "version": 1
  },
  "userdoc": {
    "kind": "user",
    "methods": {
      "addLiquidity()": {
        "notice": "takes both ETH and token from user and mints new liquidity NOTE: param is msg.value sent with call. This will be used with AMM to calculate amount of tokens to be transferred. NOTE: user must approve DEX to spend their tokens before calling"
      },
      "calculatePrice(uint256,uint256,uint256)": {
        "notice": "returns yOutput, or yDelta for xInput (or xDelta).  NOTE: Follows simple x * y = k pricing model."
      },
      "constructor": {
        "notice": "sets address of ERC20 token for exchange"
      },
      "ethToToken()": {
        "notice": "sends Ether to DEX in exchange for token"
      },
      "initializeLiquidity(uint256)": {
        "notice": "Provides initial liquidity to DEX "
      },
      "tokenToEth(uint256)": {
        "notice": "sends token to DEX in exchange for ETH"
      },
      "withdrawLiquidity(uint256)": {
        "notice": "returns both ETH & tokens when user withdraws liquidity from DEX"
      }
    },
    "version": 1
  },
  "storageLayout": {
    "storage": [
      {
        "astId": 727,
        "contract": "contracts/MinimalDex.sol:MinimalDex",
        "label": "token",
        "offset": 0,
        "slot": "0",
        "type": "t_contract(IERC20)663"
      },
      {
        "astId": 729,
        "contract": "contracts/MinimalDex.sol:MinimalDex",
        "label": "s_totalLiquidity",
        "offset": 0,
        "slot": "1",
        "type": "t_uint256"
      },
      {
        "astId": 733,
        "contract": "contracts/MinimalDex.sol:MinimalDex",
        "label": "s_userLiquidity",
        "offset": 0,
        "slot": "2",
        "type": "t_mapping(t_address,t_uint256)"
      }
    ],
    "types": {
      "t_address": {
        "encoding": "inplace",
        "label": "address",
        "numberOfBytes": "20"
      },
      "t_contract(IERC20)663": {
        "encoding": "inplace",
        "label": "contract IERC20",
        "numberOfBytes": "20"
      },
      "t_mapping(t_address,t_uint256)": {
        "encoding": "mapping",
        "key": "t_address",
        "label": "mapping(address => uint256)",
        "numberOfBytes": "32",
        "value": "t_uint256"
      },
      "t_uint256": {
        "encoding": "inplace",
        "label": "uint256",
        "numberOfBytes": "32"
      }
    }
  }
}